{
  "contractName": "Patient",
  "abi": [
    {
      "constant": true,
      "inputs": [
        {
          "name": "",
          "type": "address"
        }
      ],
      "name": "patients",
      "outputs": [
        {
          "name": "Address",
          "type": "address"
        },
        {
          "name": "payment",
          "type": "uint256"
        },
        {
          "name": "id",
          "type": "uint256"
        },
        {
          "name": "isPatientRegistered",
          "type": "bool"
        }
      ],
      "payable": false,
      "stateMutability": "view",
      "type": "function"
    },
    {
      "constant": true,
      "inputs": [],
      "name": "nextPatientId",
      "outputs": [
        {
          "name": "",
          "type": "uint256"
        }
      ],
      "payable": false,
      "stateMutability": "view",
      "type": "function"
    },
    {
      "constant": true,
      "inputs": [
        {
          "name": "",
          "type": "uint256"
        }
      ],
      "name": "addrPatients",
      "outputs": [
        {
          "name": "",
          "type": "address"
        }
      ],
      "payable": false,
      "stateMutability": "view",
      "type": "function"
    },
    {
      "anonymous": false,
      "inputs": [
        {
          "indexed": true,
          "name": "_address",
          "type": "address"
        },
        {
          "indexed": true,
          "name": "_id",
          "type": "uint256"
        }
      ],
      "name": "addedPatient",
      "type": "event"
    },
    {
      "anonymous": false,
      "inputs": [
        {
          "indexed": true,
          "name": "_address",
          "type": "address"
        },
        {
          "indexed": true,
          "name": "_payment",
          "type": "uint256"
        }
      ],
      "name": "patientPaid",
      "type": "event"
    },
    {
      "constant": false,
      "inputs": [],
      "name": "registerPatient",
      "outputs": [],
      "payable": false,
      "stateMutability": "nonpayable",
      "type": "function"
    },
    {
      "constant": true,
      "inputs": [
        {
          "name": "patientAddr",
          "type": "address"
        }
      ],
      "name": "checkPayment",
      "outputs": [
        {
          "name": "hasPaid",
          "type": "bool"
        }
      ],
      "payable": false,
      "stateMutability": "view",
      "type": "function"
    },
    {
      "constant": true,
      "inputs": [
        {
          "name": "patientAddr",
          "type": "address"
        }
      ],
      "name": "checkIfRegistered",
      "outputs": [
        {
          "name": "correctAddr",
          "type": "bool"
        }
      ],
      "payable": false,
      "stateMutability": "view",
      "type": "function"
    },
    {
      "constant": false,
      "inputs": [
        {
          "name": "patientAddr",
          "type": "address"
        }
      ],
      "name": "payDiagnosis",
      "outputs": [],
      "payable": true,
      "stateMutability": "payable",
      "type": "function"
    },
    {
      "constant": false,
      "inputs": [
        {
          "name": "patientAddr",
          "type": "address"
        },
        {
          "name": "_symptom",
          "type": "bytes32"
        }
      ],
      "name": "addPatientSymptoms",
      "outputs": [],
      "payable": false,
      "stateMutability": "nonpayable",
      "type": "function"
    },
    {
      "constant": true,
      "inputs": [],
      "name": "totalPatients",
      "outputs": [
        {
          "name": "",
          "type": "uint256"
        }
      ],
      "payable": false,
      "stateMutability": "view",
      "type": "function"
    }
  ],
  "bytecode": "0x608060405234801561001057600080fd5b5061090c806100206000396000f300608060405260043610610099576000357c0100000000000000000000000000000000000000000000000000000000900463ffffffff1680630869cfbc1461009e5780633b56fdc61461013a578063473f923214610195578063822d3885146101cb578063af64e735146101e2578063b11317951461023d578063c5ced37614610268578063c7a3a801146102d5578063deb5ef0914610326575b600080fd5b3480156100aa57600080fd5b506100df600480360381019080803573ffffffffffffffffffffffffffffffffffffffff169060200190929190505050610351565b604051808573ffffffffffffffffffffffffffffffffffffffff1673ffffffffffffffffffffffffffffffffffffffff1681526020018481526020018381526020018215151515815260200194505050505060405180910390f35b34801561014657600080fd5b5061017b600480360381019080803573ffffffffffffffffffffffffffffffffffffffff1690602001909291905050506103ae565b604051808215151515815260200191505060405180910390f35b6101c9600480360381019080803573ffffffffffffffffffffffffffffffffffffffff16906020019092919050505061041a565b005b3480156101d757600080fd5b506101e0610592565b005b3480156101ee57600080fd5b50610223600480360381019080803573ffffffffffffffffffffffffffffffffffffffff1690602001909291905050506107a4565b604051808215151515815260200191505060405180910390f35b34801561024957600080fd5b50610252610813565b6040518082815260200191505060405180910390f35b34801561027457600080fd5b5061029360048036038101908080359060200190929190505050610819565b604051808273ffffffffffffffffffffffffffffffffffffffff1673ffffffffffffffffffffffffffffffffffffffff16815260200191505060405180910390f35b3480156102e157600080fd5b50610324600480360381019080803573ffffffffffffffffffffffffffffffffffffffff1690602001909291908035600019169060200190929190505050610857565b005b34801561033257600080fd5b5061033b6108d3565b6040518082815260200191505060405180910390f35b60026020528060005260406000206000915090508060000160009054906101000a900473ffffffffffffffffffffffffffffffffffffffff16908060010154908060030154908060040160009054906101000a900460ff16905084565b600080600260008473ffffffffffffffffffffffffffffffffffffffff1673ffffffffffffffffffffffffffffffffffffffff16815260200190815260200160002090506000816001015414151561040c5760019150819150610414565b600091508191505b50919050565b60008073ffffffffffffffffffffffffffffffffffffffff168273ffffffffffffffffffffffffffffffffffffffff161415801561045d575061045c826107a4565b5b15156104f7576040517f08c379a000000000000000000000000000000000000000000000000000000000815260040180806020018281038252602a8152602001807f50617469656e74206164647265737320656e7465726564206973206e6f74207281526020017f656769737465726564210000000000000000000000000000000000000000000081525060400191505060405180910390fd5b600260008373ffffffffffffffffffffffffffffffffffffffff1673ffffffffffffffffffffffffffffffffffffffff1681526020019081526020016000209050348160010160008282540192505081905550343373ffffffffffffffffffffffffffffffffffffffff167f15cb3a08e26ee9c08841319cdc7f479b405e3cbf5e3835005de85964ec6e5f2060405160405180910390a35050565b60008073ffffffffffffffffffffffffffffffffffffffff163373ffffffffffffffffffffffffffffffffffffffff1614151515610638576040517f08c379a00000000000000000000000000000000000000000000000000000000081526004018080602001828103825260178152602001807f546865206164647265737320697320696e76616c69642100000000000000000081525060200191505060405180910390fd5b600260003373ffffffffffffffffffffffffffffffffffffffff1673ffffffffffffffffffffffffffffffffffffffff1681526020019081526020016000209050338160000160006101000a81548173ffffffffffffffffffffffffffffffffffffffff021916908373ffffffffffffffffffffffffffffffffffffffff160217905550600054816003018190555060018160040160006101000a81548160ff02191690831515021790555060013390806001815401808255809150509060018203906000526020600020016000909192909190916101000a81548173ffffffffffffffffffffffffffffffffffffffff021916908373ffffffffffffffffffffffffffffffffffffffff160217905550506000543373ffffffffffffffffffffffffffffffffffffffff167f8f1d1fa3d3cba2dfe0c1e2eebe8bdb952a31139ab0c82a046a3e4738243dca2160405160405180910390a3600080815480929190600101919050555050565b600080600260008473ffffffffffffffffffffffffffffffffffffffff1673ffffffffffffffffffffffffffffffffffffffff16815260200190815260200160002090508060040160009054906101000a900460ff1615610808576001915061080d565b600091505b50919050565b60005481565b60018181548110151561082857fe5b906000526020600020016000915054906101000a900473ffffffffffffffffffffffffffffffffffffffff1681565b6000600260008473ffffffffffffffffffffffffffffffffffffffff1673ffffffffffffffffffffffffffffffffffffffff168152602001908152602001600020905080600201829080600181540180825580915050906001820390600052602060002001600090919290919091509060001916905550505050565b60006001805490509050905600a165627a7a723058207682d1833d62ce2bcbd175ddb29278a058fc4425fd3aaf7c616f639ec8539def0029",
  "source": "pragma solidity ^0.4.24;\r\n\r\n\r\ncontract AIDiagnosis{\r\n    //NOTE: Use IPFS to save images to Ethereum blockchain\r\n    \r\n    struct OrganizationData {\r\n        address Address;\r\n        bool hasPermissions;\r\n    }\r\n    mapping(address => OrganizationData) public organizations;\r\n    \r\n    bytes32[] public symptoms;\r\n    bytes32[] public diseases;\r\n    \r\n    // change to PRIVATE later\r\n    address[] public organizationAddresses;    // array of private organizations that may modify symptoms and diseases\r\n    address public owner;   // the current organization that is able to modify the contract\r\n    \r\n    // adding events when symptoms and diseases are added to log them and from which organizations\r\n    event addedSymptom (\r\n        address indexed _from,      // indexed keyword only relevent to logged events\r\n        bytes32 indexed _symptom\r\n    );\r\n    \r\n    event addedDisease (\r\n        address indexed _from,\r\n        bytes32 indexed _disease\r\n    );\r\n    \r\n    event addedOrganization (\r\n        address indexed _address  \r\n    );\r\n    \r\n    event changedOwnership (\r\n        address indexed _from,\r\n        address indexed _to\r\n    );\r\n    \r\n    constructor() public {    // internal keyword will only let function be called within or from derived contracts\r\n        require(msg.sender != address(0), \"Sender address is empty\");\r\n        OrganizationData organization = organizations[msg.sender];\r\n        organization.Address = msg.sender;\r\n        organization.hasPermissions = true;\r\n        owner = msg.sender;     // the owner of the contract will be the address that has deployed the contract\r\n        organizationAddresses.push(msg.sender);\r\n        emit addedOrganization(msg.sender);\r\n    }\r\n    \r\n    function checkPermissions(address orgAddr) public view returns (bool) {\r\n        OrganizationData organization = organizations[orgAddr];\r\n        if(organization.hasPermissions) {\r\n            return true;\r\n        } else {\r\n            return false;\r\n        }\r\n    }\r\n    \r\n    function isOwner() public view returns (bool) {     // checks if the address is the CURRENT owner of the contract\r\n        OrganizationData organization = organizations[msg.sender];\r\n        if (organization.Address == owner) {\r\n            return true;\r\n        } else {\r\n            return false;\r\n        }\r\n    }\r\n    \r\n    modifier Owner() {      // function modifier that only allows the owner address/account to use the function\r\n        require(isOwner() && checkPermissions(msg.sender), \"Does not have permissions or have ownership\");\r\n        _;\r\n    }\r\n    \r\n    function addOrganizations(address newOrgAddr) public Owner {\r\n        require(newOrgAddr != address(0), \"The entered address is empty!\");\r\n        OrganizationData organization = organizations[newOrgAddr];\r\n        organization.Address = newOrgAddr;\r\n        organization.hasPermissions = true;\r\n        organizationAddresses.push(newOrgAddr);\r\n        emit addedOrganization(newOrgAddr);\r\n    }\r\n    \r\n    function transferOrgOwnership(address newOwner) public Owner {    // changes the ownership of the contract\r\n        require(newOwner != address(0));\r\n        owner = newOwner;\r\n        emit changedOwnership(owner, newOwner);\r\n    } \r\n    \r\n    function addSymptoms(bytes32 symptom) public Owner {   // adding symptoms to symptoms array\r\n        symptoms.push(symptom);\r\n        emit addedSymptom(msg.sender, symptom);\r\n    }\r\n    \r\n    \r\n    function addDiseases(bytes32 disease) public Owner {    // adding diseases to disease array\r\n        diseases.push(disease);\r\n        emit addedDisease(msg.sender, disease);\r\n    }\r\n\r\n    \r\n    // debug purposes\r\n    // function checkSymptoms() view public returns (bytes32[]) {  // view keyword does not change the state at all and only reads data\r\n    //     return symptoms;\r\n    // }\r\n    \r\n    // debug purposes    \r\n    // function checkDiseases() view public returns (bytes32[]) {\r\n    //     return diseases;\r\n    // }\r\n    \r\n    // function diagnosePatient() public {\r\n    //     // function to diagnose patient\r\n    // }\r\n    \r\n}\r\n\r\n\r\ncontract Patient {\r\n    //AIDiagnosis diagnosis = new AIDiagnosis();\r\n    \r\n    // NOTES:\r\n    // Map instead of using arrays to protect for DOS attacks\r\n    // MAYBE SAVE PATIENT ID, AND ON DAPP SHOW PATIENT #, to ACCESS SPECIFIC PATIENTS\r\n    \r\n    struct PatientData {\r\n        address Address;\r\n        uint payment;    // patient may pay for their diagnosis (idea)\r\n        bytes32[] symptoms;  \r\n        // maybe add patient measurements\r\n        uint id;\r\n        bool isPatientRegistered;\r\n    }\r\n    \r\n    \r\n    \r\n    uint public nextPatientId;     // unique identifier for each patients\r\n    address[] public addrPatients;\r\n    mapping(address => PatientData) public patients;\r\n    \r\n    event addedPatient (\r\n        address indexed _address,\r\n        uint indexed _id\r\n    );\r\n    \r\n    event patientPaid (     // logs when and how much patient has paid\r\n        address indexed _address,\r\n        uint indexed _payment\r\n    );\r\n    \r\n    function registerPatient() public {\r\n        // require function might need to be changed for Organization address as well\r\n        // require(patientAddress == address(0), \"Patient is already registered already.\");\r\n        // If require function becomes false, then it rollbacks to previous version.\r\n        require(msg.sender != address(0), \"The address is invalid!\");\r\n        PatientData patient = patients[msg.sender];  \r\n        patient.Address = msg.sender;    // whoever invoked this function will be the patients address\r\n        patient.id = nextPatientId;\r\n        patient.isPatientRegistered = true;\r\n        addrPatients.push(msg.sender);  // adds the address to the address of patients\r\n        emit addedPatient(msg.sender, nextPatientId);\r\n        nextPatientId++;\r\n    }\r\n    \r\n    function checkPayment(address patientAddr) public constant returns (bool hasPaid) {     // checks if patient paid for the diagnosis\r\n        PatientData patient = patients[patientAddr];  // use of var keyword is deprecated so use actual type\r\n        if (patient.payment != 0) {\r\n            return hasPaid = true;\r\n        } else {\r\n            return hasPaid = false;\r\n        }\r\n    }\r\n    \r\n    function checkIfRegistered(address patientAddr) public constant returns (bool correctAddr) {  // checks if patient address is registered\r\n        PatientData patient = patients[patientAddr];\r\n        if(patient.isPatientRegistered) {\r\n            return true;\r\n        } else {\r\n            return false;\r\n        }\r\n    }\r\n    \r\n    function payDiagnosis(address patientAddr) public payable {     // payable function used to receive payments (ethereum)\r\n        require(patientAddr != address(0) && checkIfRegistered(patientAddr), \"Patient address entered is not registered!\");  // checks if the patient paying is the right address\r\n        PatientData patient = patients[patientAddr];\r\n        patient.payment += msg.value;   // adds the amount of ether sent to the function to the payment property\r\n        emit patientPaid(msg.sender, msg.value);\r\n    }\r\n    \r\n    // function findDiagnosis(address patientAddr) public {   // function to find the patient's diagnosis\r\n    //     //require(checkPayment(patientAddr), \"Patient must pay first.\");  // checks if patient has paid \r\n    //     // PatientData patient = patients[patientAddr];\r\n    //     // diagnosis.diagnosePatient(patient);\r\n    // }\r\n    \r\n    function addPatientSymptoms(address patientAddr, bytes32 _symptom) public {    // adds ONLY 1 patient symptom (fix to add multiple)\r\n        PatientData patient = patients[patientAddr];\r\n        patient.symptoms.push(_symptom);\r\n    }\r\n    \r\n    function totalPatients() view public returns (uint) {\r\n        return addrPatients.length;\r\n    }\r\n    \r\n}\r\n\r\n",
  "sourcePath": "C:\\Users\\Supax2\\Documents\\GitHub\\DiagnosePatients\\Diagnosis_Dapp_Truffle\\contracts\\DiagnosePatient.sol",
  "compiler": {
    "name": "solc",
    "version": "0.4.24+commit.e67f0147.Emscripten.clang"
  },
  "schemaVersion": "2.0.1",
  "updatedAt": "2018-11-20T01:02:01.741Z"
}